:020000040000FA
:0400000033EF03F0E7
:10060000003F065B4F666D7D077F6F0022EC03F0B5
:1006100080500F0B016E0A0E016011EF03F013EF13
:1006200003F008EF03F0010E0124F66EF76A060EE0
:10063000F7220800F5CF02F002C08CFF08EF03F0AC
:1006400000EF00F0000E0F01386F000E896E000EF3
:10065000806E9268000E3B6F000E8C6E000E836EF3
:10066000000E956E1200026A000EF86E060EF76E0E
:06067000000106EF03F09B
:020000040020DA
:08000000FFFFFFFFFFFFFFFF00
:020000040030CA
:0E000000FF231F3CFFBC81FF0FC00FE00F402D
:00000001FF
